{
  "_format": "hh-sol-artifact-1",
  "contractName": "JosamTokenV2",
  "sourceName": "contracts/JosamTokenV2.sol",
  "abi": [
    {
      "anonymous": false,
      "inputs": [
        {
          "indexed": false,
          "internalType": "address",
          "name": "accountOwner",
          "type": "address"
        },
        {
          "indexed": false,
          "internalType": "address",
          "name": "spender",
          "type": "address"
        },
        {
          "indexed": false,
          "internalType": "uint256",
          "name": "amount",
          "type": "uint256"
        }
      ],
      "name": "Approval",
      "type": "event"
    },
    {
      "anonymous": false,
      "inputs": [
        {
          "indexed": false,
          "internalType": "address",
          "name": "account",
          "type": "address"
        },
        {
          "indexed": false,
          "internalType": "address",
          "name": "contractAddress",
          "type": "address"
        },
        {
          "indexed": false,
          "internalType": "uint256",
          "name": "amount",
          "type": "uint256"
        }
      ],
      "name": "Burn",
      "type": "event"
    },
    {
      "anonymous": false,
      "inputs": [
        {
          "indexed": false,
          "internalType": "address",
          "name": "account",
          "type": "address"
        },
        {
          "indexed": false,
          "internalType": "address",
          "name": "contractAddress",
          "type": "address"
        },
        {
          "indexed": false,
          "internalType": "uint256",
          "name": "amount",
          "type": "uint256"
        }
      ],
      "name": "Mint",
      "type": "event"
    },
    {
      "anonymous": false,
      "inputs": [
        {
          "indexed": false,
          "internalType": "address",
          "name": "oldOwner",
          "type": "address"
        },
        {
          "indexed": false,
          "internalType": "address",
          "name": "newOwner",
          "type": "address"
        }
      ],
      "name": "OwnershipTransfert",
      "type": "event"
    },
    {
      "anonymous": false,
      "inputs": [
        {
          "indexed": false,
          "internalType": "address",
          "name": "to",
          "type": "address"
        },
        {
          "indexed": false,
          "internalType": "uint256",
          "name": "amount",
          "type": "uint256"
        }
      ],
      "name": "Transfert",
      "type": "event"
    },
    {
      "anonymous": false,
      "inputs": [
        {
          "indexed": false,
          "internalType": "address",
          "name": "from",
          "type": "address"
        },
        {
          "indexed": false,
          "internalType": "address",
          "name": "to",
          "type": "address"
        },
        {
          "indexed": false,
          "internalType": "uint256",
          "name": "amount",
          "type": "uint256"
        }
      ],
      "name": "TransfertFrom",
      "type": "event"
    },
    {
      "inputs": [
        {
          "internalType": "address",
          "name": "_ownerAccount",
          "type": "address"
        },
        {
          "internalType": "address",
          "name": "_spender",
          "type": "address"
        }
      ],
      "name": "allowance",
      "outputs": [
        {
          "internalType": "uint256",
          "name": "",
          "type": "uint256"
        }
      ],
      "stateMutability": "view",
      "type": "function"
    },
    {
      "inputs": [
        {
          "internalType": "address",
          "name": "_spender",
          "type": "address"
        },
        {
          "internalType": "uint256",
          "name": "_amount",
          "type": "uint256"
        }
      ],
      "name": "approve",
      "outputs": [],
      "stateMutability": "nonpayable",
      "type": "function"
    },
    {
      "inputs": [
        {
          "internalType": "address",
          "name": "account",
          "type": "address"
        }
      ],
      "name": "balanceOf",
      "outputs": [
        {
          "internalType": "uint256",
          "name": "",
          "type": "uint256"
        }
      ],
      "stateMutability": "view",
      "type": "function"
    },
    {
      "inputs": [
        {
          "internalType": "address",
          "name": "_account",
          "type": "address"
        },
        {
          "internalType": "uint256",
          "name": "_amount",
          "type": "uint256"
        }
      ],
      "name": "burn",
      "outputs": [],
      "stateMutability": "nonpayable",
      "type": "function"
    },
    {
      "inputs": [],
      "name": "decimals",
      "outputs": [
        {
          "internalType": "uint8",
          "name": "",
          "type": "uint8"
        }
      ],
      "stateMutability": "pure",
      "type": "function"
    },
    {
      "inputs": [
        {
          "internalType": "address",
          "name": "_spender",
          "type": "address"
        },
        {
          "internalType": "uint256",
          "name": "_amount",
          "type": "uint256"
        }
      ],
      "name": "decreaseAllowance",
      "outputs": [],
      "stateMutability": "nonpayable",
      "type": "function"
    },
    {
      "inputs": [
        {
          "internalType": "address",
          "name": "_spender",
          "type": "address"
        },
        {
          "internalType": "uint256",
          "name": "_amount",
          "type": "uint256"
        }
      ],
      "name": "increaseAllowance",
      "outputs": [],
      "stateMutability": "nonpayable",
      "type": "function"
    },
    {
      "inputs": [
        {
          "internalType": "string",
          "name": "_tName",
          "type": "string"
        },
        {
          "internalType": "string",
          "name": "_tSymbol",
          "type": "string"
        }
      ],
      "name": "initialize",
      "outputs": [],
      "stateMutability": "nonpayable",
      "type": "function"
    },
    {
      "inputs": [
        {
          "internalType": "address",
          "name": "_account",
          "type": "address"
        },
        {
          "internalType": "uint256",
          "name": "_amount",
          "type": "uint256"
        }
      ],
      "name": "mint",
      "outputs": [],
      "stateMutability": "nonpayable",
      "type": "function"
    },
    {
      "inputs": [],
      "name": "name",
      "outputs": [
        {
          "internalType": "string",
          "name": "",
          "type": "string"
        }
      ],
      "stateMutability": "view",
      "type": "function"
    },
    {
      "inputs": [],
      "name": "symbol",
      "outputs": [
        {
          "internalType": "string",
          "name": "",
          "type": "string"
        }
      ],
      "stateMutability": "view",
      "type": "function"
    },
    {
      "inputs": [],
      "name": "totalSupply",
      "outputs": [
        {
          "internalType": "uint256",
          "name": "",
          "type": "uint256"
        }
      ],
      "stateMutability": "view",
      "type": "function"
    },
    {
      "inputs": [
        {
          "internalType": "address payable",
          "name": "_to",
          "type": "address"
        },
        {
          "internalType": "uint256",
          "name": "_amount",
          "type": "uint256"
        }
      ],
      "name": "transfer",
      "outputs": [],
      "stateMutability": "payable",
      "type": "function"
    },
    {
      "inputs": [
        {
          "internalType": "address payable",
          "name": "_from",
          "type": "address"
        },
        {
          "internalType": "address payable",
          "name": "_to",
          "type": "address"
        },
        {
          "internalType": "uint256",
          "name": "_amount",
          "type": "uint256"
        }
      ],
      "name": "transferFrom",
      "outputs": [],
      "stateMutability": "payable",
      "type": "function"
    }
  ],
  "bytecode": "0x608060405234801561001057600080fd5b50611e3e806100206000396000f3fe6080604052600436106100dd5760003560e01c80634cd88b761161007f5780639dc29fac116100595780639dc29fac1461028b578063a457c2d7146102b4578063a9059cbb146102dd578063dd62ed3e146102f9576100dd565b80634cd88b76146101fa57806370a082311461022357806395d89b4114610260576100dd565b806323b872dd116100bb57806323b872dd14610161578063313ce5671461017d57806339509351146101a857806340c10f19146101d1576100dd565b806306fdde03146100e2578063095ea7b31461010d57806318160ddd14610136575b600080fd5b3480156100ee57600080fd5b506100f7610336565b6040516101049190611727565b60405180910390f35b34801561011957600080fd5b50610134600480360381019061012f9190611413565b6103c8565b005b34801561014257600080fd5b5061014b610488565b6040516101589190611849565b60405180910390f35b61017b60048036038101906101769190611340565b610491565b005b34801561018957600080fd5b5061019261087c565b60405161019f9190611864565b60405180910390f35b3480156101b457600080fd5b506101cf60048036038101906101ca9190611413565b610885565b005b3480156101dd57600080fd5b506101f860048036038101906101f39190611413565b61091c565b005b34801561020657600080fd5b50610221600480360381019061021c9190611453565b610a7e565b005b34801561022f57600080fd5b5061024a60048036038101906102459190611313565b610b8f565b6040516102579190611849565b60405180910390f35b34801561026c57600080fd5b50610275610bd8565b6040516102829190611727565b60405180910390f35b34801561029757600080fd5b506102b260048036038101906102ad9190611413565b610c6a565b005b3480156102c057600080fd5b506102db60048036038101906102d69190611413565b610e0b565b005b6102f760048036038101906102f29190611393565b610ea2565b005b34801561030557600080fd5b50610320600480360381019061031b91906113d3565b61113a565b60405161032d9190611849565b60405180910390f35b60606001805461034590611a59565b80601f016020809104026020016040519081016040528092919081815260200182805461037190611a59565b80156103be5780601f10610393576101008083540402835291602001916103be565b820191906000526020600020905b8154815290600101906020018083116103a157829003601f168201915b5050505050905090565b80600560003373ffffffffffffffffffffffffffffffffffffffff1673ffffffffffffffffffffffffffffffffffffffff16815260200190815260200160002060008473ffffffffffffffffffffffffffffffffffffffff1673ffffffffffffffffffffffffffffffffffffffff168152602001908152602001600020819055507f8c5be1e5ebec7d5bd14f71427d1e84f3dd0314c0f7b2291e5b200ac8c7c3b92533838360405161047c939291906116f0565b60405180910390a15050565b60008054905090565b600073ffffffffffffffffffffffffffffffffffffffff168373ffffffffffffffffffffffffffffffffffffffff16141580156104fa57503073ffffffffffffffffffffffffffffffffffffffff168373ffffffffffffffffffffffffffffffffffffffff1614155b80156105335750600073ffffffffffffffffffffffffffffffffffffffff168273ffffffffffffffffffffffffffffffffffffffff1614155b801561053f5750600081115b61057e576040517f08c379a0000000000000000000000000000000000000000000000000000000008152600401610575906117e9565b60405180910390fd5b80610589843361113a565b10156105ca576040517f08c379a00000000000000000000000000000000000000000000000000000000081526004016105c1906117a9565b60405180910390fd5b80600360008573ffffffffffffffffffffffffffffffffffffffff1673ffffffffffffffffffffffffffffffffffffffff16815260200190815260200160002054101561064c576040517f08c379a000000000000000000000000000000000000000000000000000000000815260040161064390611769565b60405180910390fd5b80600560008573ffffffffffffffffffffffffffffffffffffffff1673ffffffffffffffffffffffffffffffffffffffff16815260200190815260200160002060003373ffffffffffffffffffffffffffffffffffffffff1673ffffffffffffffffffffffffffffffffffffffff16815260200190815260200160002060008282546106d89190611952565b9250508190555080600360008573ffffffffffffffffffffffffffffffffffffffff1673ffffffffffffffffffffffffffffffffffffffff168152602001908152602001600020600082825461072e9190611952565b9250508190555080600360008473ffffffffffffffffffffffffffffffffffffffff1673ffffffffffffffffffffffffffffffffffffffff168152602001908152602001600020600082825461078491906118fc565b9250508190555060008373ffffffffffffffffffffffffffffffffffffffff16612710836040516107b49061167b565b600060405180830381858888f193505050503d80600081146107f2576040519150601f19603f3d011682016040523d82523d6000602084013e6107f7565b606091505b505090508061083b576040517f08c379a000000000000000000000000000000000000000000000000000000000815260040161083290611749565b60405180910390fd5b7f8f6f32eaf9c80423b7572115ccc40c35f3614b87383235893e6deacd5410c9db84848460405161086e93929190611690565b60405180910390a150505050565b60006012905090565b80600560003373ffffffffffffffffffffffffffffffffffffffff1673ffffffffffffffffffffffffffffffffffffffff16815260200190815260200160002060008473ffffffffffffffffffffffffffffffffffffffff1673ffffffffffffffffffffffffffffffffffffffff168152602001908152602001600020600082825461091191906118fc565b925050819055505050565b3073ffffffffffffffffffffffffffffffffffffffff168273ffffffffffffffffffffffffffffffffffffffff16141580156109855750600073ffffffffffffffffffffffffffffffffffffffff168273ffffffffffffffffffffffffffffffffffffffff1614155b80156109915750600081115b6109d0576040517f08c379a00000000000000000000000000000000000000000000000000000000081526004016109c790611789565b60405180910390fd5b806000808282546109e191906118fc565b9250508190555080600360008473ffffffffffffffffffffffffffffffffffffffff1673ffffffffffffffffffffffffffffffffffffffff1681526020019081526020016000206000828254610a3791906118fc565b925050819055507fab8530f87dc9b59234c4623bf917212bb2536d647574c8e7e5da92c2ede0c9f882600083604051610a72939291906116f0565b60405180910390a15050565b600460009054906101000a900460ff1615610ace576040517f08c379a0000000000000000000000000000000000000000000000000000000008152600401610ac5906117c9565b60405180910390fd5b8160019080519060200190610ae49291906111c1565b508060029080519060200190610afb9291906111c1565b50620f4240600080828254610b1091906118fc565b92505081905550620f4240600360003373ffffffffffffffffffffffffffffffffffffffff1673ffffffffffffffffffffffffffffffffffffffff1681526020019081526020016000206000828254610b6991906118fc565b925050819055506001600460006101000a81548160ff0219169083151502179055505050565b6000600360008373ffffffffffffffffffffffffffffffffffffffff1673ffffffffffffffffffffffffffffffffffffffff168152602001908152602001600020549050919050565b606060028054610be790611a59565b80601f0160208091040260200160405190810160405280929190818152602001828054610c1390611a59565b8015610c605780601f10610c3557610100808354040283529160200191610c60565b820191906000526020600020905b815481529060010190602001808311610c4357829003601f168201915b5050505050905090565b3073ffffffffffffffffffffffffffffffffffffffff168273ffffffffffffffffffffffffffffffffffffffff1614158015610cd35750600073ffffffffffffffffffffffffffffffffffffffff168273ffffffffffffffffffffffffffffffffffffffff1614155b8015610d1e575080600360008473ffffffffffffffffffffffffffffffffffffffff1673ffffffffffffffffffffffffffffffffffffffff1681526020019081526020016000205410155b610d5d576040517f08c379a0000000000000000000000000000000000000000000000000000000008152600401610d5490611809565b60405180910390fd5b80600360008473ffffffffffffffffffffffffffffffffffffffff1673ffffffffffffffffffffffffffffffffffffffff1681526020019081526020016000206000828254610dac9190611952565b9250508190555080600080828254610dc49190611952565b925050819055507fbac40739b0d4ca32fa2d82fc91630465ba3eddd1598da6fca393b26fb63b945382600083604051610dff939291906116f0565b60405180910390a15050565b80600560003373ffffffffffffffffffffffffffffffffffffffff1673ffffffffffffffffffffffffffffffffffffffff16815260200190815260200160002060008473ffffffffffffffffffffffffffffffffffffffff1673ffffffffffffffffffffffffffffffffffffffff1681526020019081526020016000206000828254610e979190611952565b925050819055505050565b600073ffffffffffffffffffffffffffffffffffffffff168273ffffffffffffffffffffffffffffffffffffffff1614158015610edf5750600081115b610f1e576040517f08c379a0000000000000000000000000000000000000000000000000000000008152600401610f15906117e9565b60405180910390fd5b80600360003373ffffffffffffffffffffffffffffffffffffffff1673ffffffffffffffffffffffffffffffffffffffff168152602001908152602001600020541015610fa0576040517f08c379a0000000000000000000000000000000000000000000000000000000008152600401610f9790611769565b60405180910390fd5b80600360003373ffffffffffffffffffffffffffffffffffffffff1673ffffffffffffffffffffffffffffffffffffffff1681526020019081526020016000206000828254610fef9190611952565b9250508190555080600360008473ffffffffffffffffffffffffffffffffffffffff1673ffffffffffffffffffffffffffffffffffffffff168152602001908152602001600020600082825461104591906118fc565b9250508190555060008273ffffffffffffffffffffffffffffffffffffffff16612710836040516110759061167b565b600060405180830381858888f193505050503d80600081146110b3576040519150601f19603f3d011682016040523d82523d6000602084013e6110b8565b606091505b50509050806110fc576040517f08c379a00000000000000000000000000000000000000000000000000000000081526004016110f390611829565b60405180910390fd5b7f6d4caf11311f4079aabeda64a5a93135c7d759da4211ecccd3100a70a7d2bec3838360405161112d9291906116c7565b60405180910390a1505050565b6000600560008473ffffffffffffffffffffffffffffffffffffffff1673ffffffffffffffffffffffffffffffffffffffff16815260200190815260200160002060008373ffffffffffffffffffffffffffffffffffffffff1673ffffffffffffffffffffffffffffffffffffffff16815260200190815260200160002054905092915050565b8280546111cd90611a59565b90600052602060002090601f0160209004810192826111ef5760008555611236565b82601f1061120857805160ff1916838001178555611236565b82800160010185558215611236579182015b8281111561123557825182559160200191906001019061121a565b5b5090506112439190611247565b5090565b5b80821115611260576000816000905550600101611248565b5090565b6000611277611272846118a4565b61187f565b90508281526020810184848401111561129357611292611b4e565b5b61129e848285611a17565b509392505050565b6000813590506112b581611dc3565b92915050565b6000813590506112ca81611dda565b92915050565b600082601f8301126112e5576112e4611b49565b5b81356112f5848260208601611264565b91505092915050565b60008135905061130d81611df1565b92915050565b60006020828403121561132957611328611b58565b5b6000611337848285016112a6565b91505092915050565b60008060006060848603121561135957611358611b58565b5b6000611367868287016112bb565b9350506020611378868287016112bb565b9250506040611389868287016112fe565b9150509250925092565b600080604083850312156113aa576113a9611b58565b5b60006113b8858286016112bb565b92505060206113c9858286016112fe565b9150509250929050565b600080604083850312156113ea576113e9611b58565b5b60006113f8858286016112a6565b9250506020611409858286016112a6565b9150509250929050565b6000806040838503121561142a57611429611b58565b5b6000611438858286016112a6565b9250506020611449858286016112fe565b9150509250929050565b6000806040838503121561146a57611469611b58565b5b600083013567ffffffffffffffff81111561148857611487611b53565b5b611494858286016112d0565b925050602083013567ffffffffffffffff8111156114b5576114b4611b53565b5b6114c1858286016112d0565b9150509250929050565b6114d4816119e1565b82525050565b6114e381611986565b82525050565b60006114f4826118d5565b6114fe81856118eb565b935061150e818560208601611a26565b61151781611b5d565b840191505092915050565b600061152f6021836118eb565b915061153a82611b6e565b604082019050919050565b60006115526027836118eb565b915061155d82611bbd565b604082019050919050565b60006115756023836118eb565b915061158082611c0c565b604082019050919050565b6000611598601e836118eb565b91506115a382611c5b565b602082019050919050565b60006115bb602b836118eb565b91506115c682611c84565b604082019050919050565b60006115de6015836118eb565b91506115e982611cd3565b602082019050919050565b60006116016023836118eb565b915061160c82611cfc565b604082019050919050565b60006116246019836118e0565b915061162f82611d4b565b601982019050919050565b60006116476022836118eb565b915061165282611d74565b604082019050919050565b611666816119ca565b82525050565b611675816119d4565b82525050565b600061168682611617565b9150819050919050565b60006060820190506116a560008301866114cb565b6116b260208301856114cb565b6116bf604083018461165d565b949350505050565b60006040820190506116dc60008301856114cb565b6116e9602083018461165d565b9392505050565b600060608201905061170560008301866114da565b61171260208301856114da565b61171f604083018461165d565b949350505050565b6000602082019050818103600083015261174181846114e9565b905092915050565b6000602082019050818103600083015261176281611522565b9050919050565b6000602082019050818103600083015261178281611545565b9050919050565b600060208201905081810360008301526117a281611568565b9050919050565b600060208201905081810360008301526117c28161158b565b9050919050565b600060208201905081810360008301526117e2816115ae565b9050919050565b60006020820190508181036000830152611802816115d1565b9050919050565b60006020820190508181036000830152611822816115f4565b9050919050565b600060208201905081810360008301526118428161163a565b9050919050565b600060208201905061185e600083018461165d565b92915050565b6000602082019050611879600083018461166c565b92915050565b600061188961189a565b90506118958282611a8b565b919050565b6000604051905090565b600067ffffffffffffffff8211156118bf576118be611b1a565b5b6118c882611b5d565b9050602081019050919050565b600081519050919050565b600081905092915050565b600082825260208201905092915050565b6000611907826119ca565b9150611912836119ca565b9250827fffffffffffffffffffffffffffffffffffffffffffffffffffffffffffffffff0382111561194757611946611abc565b5b828201905092915050565b600061195d826119ca565b9150611968836119ca565b92508282101561197b5761197a611abc565b5b828203905092915050565b6000611991826119aa565b9050919050565b60006119a3826119aa565b9050919050565b600073ffffffffffffffffffffffffffffffffffffffff82169050919050565b6000819050919050565b600060ff82169050919050565b60006119ec826119f3565b9050919050565b60006119fe82611a05565b9050919050565b6000611a10826119aa565b9050919050565b82818337600083830152505050565b60005b83811015611a44578082015181840152602081019050611a29565b83811115611a53576000848401525b50505050565b60006002820490506001821680611a7157607f821691505b60208210811415611a8557611a84611aeb565b5b50919050565b611a9482611b5d565b810181811067ffffffffffffffff82111715611ab357611ab2611b1a565b5b80604052505050565b7f4e487b7100000000000000000000000000000000000000000000000000000000600052601160045260246000fd5b7f4e487b7100000000000000000000000000000000000000000000000000000000600052602260045260246000fd5b7f4e487b7100000000000000000000000000000000000000000000000000000000600052604160045260246000fd5b600080fd5b600080fd5b600080fd5b600080fd5b6000601f19601f8301169050919050565b7f45524332303a204661696c656420746f207472616e7366657220546f6b656e7360008201527f2e00000000000000000000000000000000000000000000000000000000000000602082015250565b7f45524332303a205472616e7366657220616d6f756e742065786365656473206260008201527f616c616e63652e00000000000000000000000000000000000000000000000000602082015250565b7f45524332303a2043616e206e6f74206d696e742e20496e76616c696420696e7060008201527f75742e0000000000000000000000000000000000000000000000000000000000602082015250565b7f45524332303a20496e73756666696369656e7420616c6c6f77616e63652e0000600082015250565b7f436f6e747261637420696e737465616e63652068617320616c7265616479206960008201527f6e697469616c697a65642e000000000000000000000000000000000000000000602082015250565b7f45524332303a20496e76616c696420696e7075742e0000000000000000000000600082015250565b7f45524332303a2043616e206e6f74206275726e2e20496e76616c696420696e7060008201527f75742e0000000000000000000000000000000000000000000000000000000000602082015250565b7f45524332303a20416d6f756e74207472616e7366657265642e00000000000000600082015250565b7f45524332303a204661696c656420746f207472616e736665727420546f6b656e60008201527f732e000000000000000000000000000000000000000000000000000000000000602082015250565b611dcc81611986565b8114611dd757600080fd5b50565b611de381611998565b8114611dee57600080fd5b50565b611dfa816119ca565b8114611e0557600080fd5b5056fea2646970667358221220ba69c22969cd5fc21cb71bd9e0959e4dd8d49168d27ea01336b045942a0987fa64736f6c63430008060033",
  "linkReferences": {},
  "deployedLinkReferences": {}
}