{
  "_format": "hh-sol-artifact-1",
  "contractName": "JosamTokenV2",
  "sourceName": "contracts/JosamTokenV2.sol",
  "abi": [
    {
      "anonymous": false,
      "inputs": [
        {
          "indexed": false,
          "internalType": "address",
          "name": "accountOwner",
          "type": "address"
        },
        {
          "indexed": false,
          "internalType": "address",
          "name": "spender",
          "type": "address"
        },
        {
          "indexed": false,
          "internalType": "uint256",
          "name": "amount",
          "type": "uint256"
        }
      ],
      "name": "Approval",
      "type": "event"
    },
    {
      "anonymous": false,
      "inputs": [
        {
          "indexed": false,
          "internalType": "address",
          "name": "account",
          "type": "address"
        },
        {
          "indexed": false,
          "internalType": "address",
          "name": "contractAddress",
          "type": "address"
        },
        {
          "indexed": false,
          "internalType": "uint256",
          "name": "amount",
          "type": "uint256"
        }
      ],
      "name": "Burn",
      "type": "event"
    },
    {
      "anonymous": false,
      "inputs": [
        {
          "indexed": false,
          "internalType": "address",
          "name": "account",
          "type": "address"
        },
        {
          "indexed": false,
          "internalType": "address",
          "name": "contractAddress",
          "type": "address"
        },
        {
          "indexed": false,
          "internalType": "uint256",
          "name": "amount",
          "type": "uint256"
        }
      ],
      "name": "Mint",
      "type": "event"
    },
    {
      "anonymous": false,
      "inputs": [
        {
          "indexed": false,
          "internalType": "address",
          "name": "oldOwner",
          "type": "address"
        },
        {
          "indexed": false,
          "internalType": "address",
          "name": "newOwner",
          "type": "address"
        }
      ],
      "name": "OwnershipTransfert",
      "type": "event"
    },
    {
      "anonymous": false,
      "inputs": [
        {
          "indexed": false,
          "internalType": "address",
          "name": "to",
          "type": "address"
        },
        {
          "indexed": false,
          "internalType": "uint256",
          "name": "amount",
          "type": "uint256"
        }
      ],
      "name": "Transfert",
      "type": "event"
    },
    {
      "anonymous": false,
      "inputs": [
        {
          "indexed": false,
          "internalType": "address",
          "name": "from",
          "type": "address"
        },
        {
          "indexed": false,
          "internalType": "address",
          "name": "to",
          "type": "address"
        },
        {
          "indexed": false,
          "internalType": "uint256",
          "name": "amount",
          "type": "uint256"
        }
      ],
      "name": "TransfertFrom",
      "type": "event"
    },
    {
      "inputs": [
        {
          "internalType": "address",
          "name": "_ownerAccount",
          "type": "address"
        },
        {
          "internalType": "address",
          "name": "_spender",
          "type": "address"
        }
      ],
      "name": "allowance",
      "outputs": [
        {
          "internalType": "uint256",
          "name": "",
          "type": "uint256"
        }
      ],
      "stateMutability": "view",
      "type": "function"
    },
    {
      "inputs": [
        {
          "internalType": "address",
          "name": "_spender",
          "type": "address"
        },
        {
          "internalType": "uint256",
          "name": "_amount",
          "type": "uint256"
        }
      ],
      "name": "approve",
      "outputs": [],
      "stateMutability": "nonpayable",
      "type": "function"
    },
    {
      "inputs": [
        {
          "internalType": "address",
          "name": "account",
          "type": "address"
        }
      ],
      "name": "balanceOf",
      "outputs": [
        {
          "internalType": "uint256",
          "name": "",
          "type": "uint256"
        }
      ],
      "stateMutability": "view",
      "type": "function"
    },
    {
      "inputs": [
        {
          "internalType": "address",
          "name": "_account",
          "type": "address"
        },
        {
          "internalType": "uint256",
          "name": "_amount",
          "type": "uint256"
        }
      ],
      "name": "burn",
      "outputs": [],
      "stateMutability": "nonpayable",
      "type": "function"
    },
    {
      "inputs": [],
      "name": "decimals",
      "outputs": [
        {
          "internalType": "uint8",
          "name": "",
          "type": "uint8"
        }
      ],
      "stateMutability": "pure",
      "type": "function"
    },
    {
      "inputs": [
        {
          "internalType": "address",
          "name": "_spender",
          "type": "address"
        },
        {
          "internalType": "uint256",
          "name": "_amount",
          "type": "uint256"
        }
      ],
      "name": "decreaseAllowance",
      "outputs": [],
      "stateMutability": "nonpayable",
      "type": "function"
    },
    {
      "inputs": [
        {
          "internalType": "address",
          "name": "_spender",
          "type": "address"
        },
        {
          "internalType": "uint256",
          "name": "_amount",
          "type": "uint256"
        }
      ],
      "name": "increaseAllowance",
      "outputs": [],
      "stateMutability": "nonpayable",
      "type": "function"
    },
    {
      "inputs": [
        {
          "internalType": "string",
          "name": "_tName",
          "type": "string"
        },
        {
          "internalType": "string",
          "name": "_tSymbol",
          "type": "string"
        }
      ],
      "name": "initialize",
      "outputs": [],
      "stateMutability": "nonpayable",
      "type": "function"
    },
    {
      "inputs": [
        {
          "internalType": "address",
          "name": "_account",
          "type": "address"
        },
        {
          "internalType": "uint256",
          "name": "_amount",
          "type": "uint256"
        }
      ],
      "name": "mint",
      "outputs": [],
      "stateMutability": "nonpayable",
      "type": "function"
    },
    {
      "inputs": [],
      "name": "name",
      "outputs": [
        {
          "internalType": "string",
          "name": "",
          "type": "string"
        }
      ],
      "stateMutability": "view",
      "type": "function"
    },
    {
      "inputs": [],
      "name": "symbol",
      "outputs": [
        {
          "internalType": "string",
          "name": "",
          "type": "string"
        }
      ],
      "stateMutability": "view",
      "type": "function"
    },
    {
      "inputs": [],
      "name": "totalSupply",
      "outputs": [
        {
          "internalType": "uint256",
          "name": "",
          "type": "uint256"
        }
      ],
      "stateMutability": "view",
      "type": "function"
    },
    {
      "inputs": [
        {
          "internalType": "address payable",
          "name": "_to",
          "type": "address"
        },
        {
          "internalType": "uint256",
          "name": "_amount",
          "type": "uint256"
        }
      ],
      "name": "transfer",
      "outputs": [],
      "stateMutability": "payable",
      "type": "function"
    },
    {
      "inputs": [
        {
          "internalType": "address payable",
          "name": "_from",
          "type": "address"
        },
        {
          "internalType": "address payable",
          "name": "_to",
          "type": "address"
        },
        {
          "internalType": "uint256",
          "name": "_amount",
          "type": "uint256"
        }
      ],
      "name": "transferFrom",
      "outputs": [],
      "stateMutability": "payable",
      "type": "function"
    }
  ],
  "bytecode": "0x608060405234801561001057600080fd5b50611e7f806100206000396000f3fe6080604052600436106100dd5760003560e01c80634cd88b761161007f5780639dc29fac116100595780639dc29fac1461028b578063a457c2d7146102b4578063a9059cbb146102dd578063dd62ed3e146102f9576100dd565b80634cd88b76146101fa57806370a082311461022357806395d89b4114610260576100dd565b806323b872dd116100bb57806323b872dd14610161578063313ce5671461017d57806339509351146101a857806340c10f19146101d1576100dd565b806306fdde03146100e2578063095ea7b31461010d57806318160ddd14610136575b600080fd5b3480156100ee57600080fd5b506100f7610336565b6040516101049190611768565b60405180910390f35b34801561011957600080fd5b50610134600480360381019061012f9190611454565b6103c8565b005b34801561014257600080fd5b5061014b610488565b604051610158919061188a565b60405180910390f35b61017b60048036038101906101769190611381565b610491565b005b34801561018957600080fd5b5061019261087c565b60405161019f91906118a5565b60405180910390f35b3480156101b457600080fd5b506101cf60048036038101906101ca9190611454565b610885565b005b3480156101dd57600080fd5b506101f860048036038101906101f39190611454565b61091c565b005b34801561020657600080fd5b50610221600480360381019061021c9190611494565b610a7e565b005b34801561022f57600080fd5b5061024a60048036038101906102459190611354565b610bd0565b604051610257919061188a565b60405180910390f35b34801561026c57600080fd5b50610275610c19565b6040516102829190611768565b60405180910390f35b34801561029757600080fd5b506102b260048036038101906102ad9190611454565b610cab565b005b3480156102c057600080fd5b506102db60048036038101906102d69190611454565b610e4c565b005b6102f760048036038101906102f291906113d4565b610ee3565b005b34801561030557600080fd5b50610320600480360381019061031b9190611414565b61117b565b60405161032d919061188a565b60405180910390f35b60606001805461034590611a9a565b80601f016020809104026020016040519081016040528092919081815260200182805461037190611a9a565b80156103be5780601f10610393576101008083540402835291602001916103be565b820191906000526020600020905b8154815290600101906020018083116103a157829003601f168201915b5050505050905090565b80600460003373ffffffffffffffffffffffffffffffffffffffff1673ffffffffffffffffffffffffffffffffffffffff16815260200190815260200160002060008473ffffffffffffffffffffffffffffffffffffffff1673ffffffffffffffffffffffffffffffffffffffff168152602001908152602001600020819055507f8c5be1e5ebec7d5bd14f71427d1e84f3dd0314c0f7b2291e5b200ac8c7c3b92533838360405161047c93929190611731565b60405180910390a15050565b60008054905090565b600073ffffffffffffffffffffffffffffffffffffffff168373ffffffffffffffffffffffffffffffffffffffff16141580156104fa57503073ffffffffffffffffffffffffffffffffffffffff168373ffffffffffffffffffffffffffffffffffffffff1614155b80156105335750600073ffffffffffffffffffffffffffffffffffffffff168273ffffffffffffffffffffffffffffffffffffffff1614155b801561053f5750600081115b61057e576040517f08c379a00000000000000000000000000000000000000000000000000000000081526004016105759061182a565b60405180910390fd5b80610589843361117b565b10156105ca576040517f08c379a00000000000000000000000000000000000000000000000000000000081526004016105c1906117ea565b60405180910390fd5b80600360008573ffffffffffffffffffffffffffffffffffffffff1673ffffffffffffffffffffffffffffffffffffffff16815260200190815260200160002054101561064c576040517f08c379a0000000000000000000000000000000000000000000000000000000008152600401610643906117aa565b60405180910390fd5b80600460008573ffffffffffffffffffffffffffffffffffffffff1673ffffffffffffffffffffffffffffffffffffffff16815260200190815260200160002060003373ffffffffffffffffffffffffffffffffffffffff1673ffffffffffffffffffffffffffffffffffffffff16815260200190815260200160002060008282546106d89190611993565b9250508190555080600360008573ffffffffffffffffffffffffffffffffffffffff1673ffffffffffffffffffffffffffffffffffffffff168152602001908152602001600020600082825461072e9190611993565b9250508190555080600360008473ffffffffffffffffffffffffffffffffffffffff1673ffffffffffffffffffffffffffffffffffffffff1681526020019081526020016000206000828254610784919061193d565b9250508190555060008373ffffffffffffffffffffffffffffffffffffffff16612710836040516107b4906116bc565b600060405180830381858888f193505050503d80600081146107f2576040519150601f19603f3d011682016040523d82523d6000602084013e6107f7565b606091505b505090508061083b576040517f08c379a00000000000000000000000000000000000000000000000000000000081526004016108329061178a565b60405180910390fd5b7f8f6f32eaf9c80423b7572115ccc40c35f3614b87383235893e6deacd5410c9db84848460405161086e939291906116d1565b60405180910390a150505050565b60006012905090565b80600460003373ffffffffffffffffffffffffffffffffffffffff1673ffffffffffffffffffffffffffffffffffffffff16815260200190815260200160002060008473ffffffffffffffffffffffffffffffffffffffff1673ffffffffffffffffffffffffffffffffffffffff1681526020019081526020016000206000828254610911919061193d565b925050819055505050565b3073ffffffffffffffffffffffffffffffffffffffff168273ffffffffffffffffffffffffffffffffffffffff16141580156109855750600073ffffffffffffffffffffffffffffffffffffffff168273ffffffffffffffffffffffffffffffffffffffff1614155b80156109915750600081115b6109d0576040517f08c379a00000000000000000000000000000000000000000000000000000000081526004016109c7906117ca565b60405180910390fd5b806000808282546109e1919061193d565b9250508190555080600360008473ffffffffffffffffffffffffffffffffffffffff1673ffffffffffffffffffffffffffffffffffffffff1681526020019081526020016000206000828254610a37919061193d565b925050819055507fab8530f87dc9b59234c4623bf917212bb2536d647574c8e7e5da92c2ede0c9f882600083604051610a7293929190611731565b60405180910390a15050565b600560149054906101000a900460ff1615610ace576040517f08c379a0000000000000000000000000000000000000000000000000000000008152600401610ac59061180a565b60405180910390fd5b8160019080519060200190610ae4929190611202565b508060029080519060200190610afb929190611202565b5033600560006101000a81548173ffffffffffffffffffffffffffffffffffffffff021916908373ffffffffffffffffffffffffffffffffffffffff160217905550620f4240600080828254610b51919061193d565b92505081905550620f4240600360003373ffffffffffffffffffffffffffffffffffffffff1673ffffffffffffffffffffffffffffffffffffffff1681526020019081526020016000206000828254610baa919061193d565b925050819055506001600560146101000a81548160ff0219169083151502179055505050565b6000600360008373ffffffffffffffffffffffffffffffffffffffff1673ffffffffffffffffffffffffffffffffffffffff168152602001908152602001600020549050919050565b606060028054610c2890611a9a565b80601f0160208091040260200160405190810160405280929190818152602001828054610c5490611a9a565b8015610ca15780601f10610c7657610100808354040283529160200191610ca1565b820191906000526020600020905b815481529060010190602001808311610c8457829003601f168201915b5050505050905090565b3073ffffffffffffffffffffffffffffffffffffffff168273ffffffffffffffffffffffffffffffffffffffff1614158015610d145750600073ffffffffffffffffffffffffffffffffffffffff168273ffffffffffffffffffffffffffffffffffffffff1614155b8015610d5f575080600360008473ffffffffffffffffffffffffffffffffffffffff1673ffffffffffffffffffffffffffffffffffffffff1681526020019081526020016000205410155b610d9e576040517f08c379a0000000000000000000000000000000000000000000000000000000008152600401610d959061184a565b60405180910390fd5b80600360008473ffffffffffffffffffffffffffffffffffffffff1673ffffffffffffffffffffffffffffffffffffffff1681526020019081526020016000206000828254610ded9190611993565b9250508190555080600080828254610e059190611993565b925050819055507fbac40739b0d4ca32fa2d82fc91630465ba3eddd1598da6fca393b26fb63b945382600083604051610e4093929190611731565b60405180910390a15050565b80600460003373ffffffffffffffffffffffffffffffffffffffff1673ffffffffffffffffffffffffffffffffffffffff16815260200190815260200160002060008473ffffffffffffffffffffffffffffffffffffffff1673ffffffffffffffffffffffffffffffffffffffff1681526020019081526020016000206000828254610ed89190611993565b925050819055505050565b600073ffffffffffffffffffffffffffffffffffffffff168273ffffffffffffffffffffffffffffffffffffffff1614158015610f205750600081115b610f5f576040517f08c379a0000000000000000000000000000000000000000000000000000000008152600401610f569061182a565b60405180910390fd5b80600360003373ffffffffffffffffffffffffffffffffffffffff1673ffffffffffffffffffffffffffffffffffffffff168152602001908152602001600020541015610fe1576040517f08c379a0000000000000000000000000000000000000000000000000000000008152600401610fd8906117aa565b60405180910390fd5b80600360003373ffffffffffffffffffffffffffffffffffffffff1673ffffffffffffffffffffffffffffffffffffffff16815260200190815260200160002060008282546110309190611993565b9250508190555080600360008473ffffffffffffffffffffffffffffffffffffffff1673ffffffffffffffffffffffffffffffffffffffff1681526020019081526020016000206000828254611086919061193d565b9250508190555060008273ffffffffffffffffffffffffffffffffffffffff16612710836040516110b6906116bc565b600060405180830381858888f193505050503d80600081146110f4576040519150601f19603f3d011682016040523d82523d6000602084013e6110f9565b606091505b505090508061113d576040517f08c379a00000000000000000000000000000000000000000000000000000000081526004016111349061186a565b60405180910390fd5b7f6d4caf11311f4079aabeda64a5a93135c7d759da4211ecccd3100a70a7d2bec3838360405161116e929190611708565b60405180910390a1505050565b6000600460008473ffffffffffffffffffffffffffffffffffffffff1673ffffffffffffffffffffffffffffffffffffffff16815260200190815260200160002060008373ffffffffffffffffffffffffffffffffffffffff1673ffffffffffffffffffffffffffffffffffffffff16815260200190815260200160002054905092915050565b82805461120e90611a9a565b90600052602060002090601f0160209004810192826112305760008555611277565b82601f1061124957805160ff1916838001178555611277565b82800160010185558215611277579182015b8281111561127657825182559160200191906001019061125b565b5b5090506112849190611288565b5090565b5b808211156112a1576000816000905550600101611289565b5090565b60006112b86112b3846118e5565b6118c0565b9050828152602081018484840111156112d4576112d3611b8f565b5b6112df848285611a58565b509392505050565b6000813590506112f681611e04565b92915050565b60008135905061130b81611e1b565b92915050565b600082601f83011261132657611325611b8a565b5b81356113368482602086016112a5565b91505092915050565b60008135905061134e81611e32565b92915050565b60006020828403121561136a57611369611b99565b5b6000611378848285016112e7565b91505092915050565b60008060006060848603121561139a57611399611b99565b5b60006113a8868287016112fc565b93505060206113b9868287016112fc565b92505060406113ca8682870161133f565b9150509250925092565b600080604083850312156113eb576113ea611b99565b5b60006113f9858286016112fc565b925050602061140a8582860161133f565b9150509250929050565b6000806040838503121561142b5761142a611b99565b5b6000611439858286016112e7565b925050602061144a858286016112e7565b9150509250929050565b6000806040838503121561146b5761146a611b99565b5b6000611479858286016112e7565b925050602061148a8582860161133f565b9150509250929050565b600080604083850312156114ab576114aa611b99565b5b600083013567ffffffffffffffff8111156114c9576114c8611b94565b5b6114d585828601611311565b925050602083013567ffffffffffffffff8111156114f6576114f5611b94565b5b61150285828601611311565b9150509250929050565b61151581611a22565b82525050565b611524816119c7565b82525050565b600061153582611916565b61153f818561192c565b935061154f818560208601611a67565b61155881611b9e565b840191505092915050565b600061157060218361192c565b915061157b82611baf565b604082019050919050565b600061159360278361192c565b915061159e82611bfe565b604082019050919050565b60006115b660238361192c565b91506115c182611c4d565b604082019050919050565b60006115d9601e8361192c565b91506115e482611c9c565b602082019050919050565b60006115fc602b8361192c565b915061160782611cc5565b604082019050919050565b600061161f60158361192c565b915061162a82611d14565b602082019050919050565b600061164260238361192c565b915061164d82611d3d565b604082019050919050565b6000611665601983611921565b915061167082611d8c565b601982019050919050565b600061168860228361192c565b915061169382611db5565b604082019050919050565b6116a781611a0b565b82525050565b6116b681611a15565b82525050565b60006116c782611658565b9150819050919050565b60006060820190506116e6600083018661150c565b6116f3602083018561150c565b611700604083018461169e565b949350505050565b600060408201905061171d600083018561150c565b61172a602083018461169e565b9392505050565b6000606082019050611746600083018661151b565b611753602083018561151b565b611760604083018461169e565b949350505050565b60006020820190508181036000830152611782818461152a565b905092915050565b600060208201905081810360008301526117a381611563565b9050919050565b600060208201905081810360008301526117c381611586565b9050919050565b600060208201905081810360008301526117e3816115a9565b9050919050565b60006020820190508181036000830152611803816115cc565b9050919050565b60006020820190508181036000830152611823816115ef565b9050919050565b6000602082019050818103600083015261184381611612565b9050919050565b6000602082019050818103600083015261186381611635565b9050919050565b600060208201905081810360008301526118838161167b565b9050919050565b600060208201905061189f600083018461169e565b92915050565b60006020820190506118ba60008301846116ad565b92915050565b60006118ca6118db565b90506118d68282611acc565b919050565b6000604051905090565b600067ffffffffffffffff821115611900576118ff611b5b565b5b61190982611b9e565b9050602081019050919050565b600081519050919050565b600081905092915050565b600082825260208201905092915050565b600061194882611a0b565b915061195383611a0b565b9250827fffffffffffffffffffffffffffffffffffffffffffffffffffffffffffffffff0382111561198857611987611afd565b5b828201905092915050565b600061199e82611a0b565b91506119a983611a0b565b9250828210156119bc576119bb611afd565b5b828203905092915050565b60006119d2826119eb565b9050919050565b60006119e4826119eb565b9050919050565b600073ffffffffffffffffffffffffffffffffffffffff82169050919050565b6000819050919050565b600060ff82169050919050565b6000611a2d82611a34565b9050919050565b6000611a3f82611a46565b9050919050565b6000611a51826119eb565b9050919050565b82818337600083830152505050565b60005b83811015611a85578082015181840152602081019050611a6a565b83811115611a94576000848401525b50505050565b60006002820490506001821680611ab257607f821691505b60208210811415611ac657611ac5611b2c565b5b50919050565b611ad582611b9e565b810181811067ffffffffffffffff82111715611af457611af3611b5b565b5b80604052505050565b7f4e487b7100000000000000000000000000000000000000000000000000000000600052601160045260246000fd5b7f4e487b7100000000000000000000000000000000000000000000000000000000600052602260045260246000fd5b7f4e487b7100000000000000000000000000000000000000000000000000000000600052604160045260246000fd5b600080fd5b600080fd5b600080fd5b600080fd5b6000601f19601f8301169050919050565b7f45524332303a204661696c656420746f207472616e7366657220546f6b656e7360008201527f2e00000000000000000000000000000000000000000000000000000000000000602082015250565b7f45524332303a205472616e7366657220616d6f756e742065786365656473206260008201527f616c616e63652e00000000000000000000000000000000000000000000000000602082015250565b7f45524332303a2043616e206e6f74206d696e742e20496e76616c696420696e7060008201527f75742e0000000000000000000000000000000000000000000000000000000000602082015250565b7f45524332303a20496e73756666696369656e7420616c6c6f77616e63652e0000600082015250565b7f436f6e747261637420696e737465616e63652068617320616c7265616479206960008201527f6e697469616c697a65642e000000000000000000000000000000000000000000602082015250565b7f45524332303a20496e76616c696420696e7075742e0000000000000000000000600082015250565b7f45524332303a2043616e206e6f74206275726e2e20496e76616c696420696e7060008201527f75742e0000000000000000000000000000000000000000000000000000000000602082015250565b7f45524332303a20416d6f756e74207472616e7366657265642e00000000000000600082015250565b7f45524332303a204661696c656420746f207472616e736665727420546f6b656e60008201527f732e000000000000000000000000000000000000000000000000000000000000602082015250565b611e0d816119c7565b8114611e1857600080fd5b50565b611e24816119d9565b8114611e2f57600080fd5b50565b611e3b81611a0b565b8114611e4657600080fd5b5056fea2646970667358221220972a95d47cbebe267e26d798eadd2245d52d9ca2907d6e6b3deee0a0b6220cb264736f6c63430008060033",
  "linkReferences": {},
  "deployedLinkReferences": {}
}