{
  "_format": "hh-sol-artifact-1",
  "contractName": "JosamToken",
  "sourceName": "contracts/JosamTokenV1.sol",
  "abi": [
    {
      "inputs": [
        {
          "internalType": "address",
          "name": "account",
          "type": "address"
        }
      ],
      "name": "balanceOf",
      "outputs": [
        {
          "internalType": "uint256",
          "name": "",
          "type": "uint256"
        }
      ],
      "stateMutability": "view",
      "type": "function"
    },
    {
      "inputs": [],
      "name": "decimals",
      "outputs": [
        {
          "internalType": "uint8",
          "name": "",
          "type": "uint8"
        }
      ],
      "stateMutability": "pure",
      "type": "function"
    },
    {
      "inputs": [
        {
          "internalType": "string",
          "name": "_tName",
          "type": "string"
        },
        {
          "internalType": "string",
          "name": "_tSymbol",
          "type": "string"
        }
      ],
      "name": "initialize",
      "outputs": [],
      "stateMutability": "nonpayable",
      "type": "function"
    },
    {
      "inputs": [],
      "name": "name",
      "outputs": [
        {
          "internalType": "string",
          "name": "",
          "type": "string"
        }
      ],
      "stateMutability": "view",
      "type": "function"
    },
    {
      "inputs": [],
      "name": "owner",
      "outputs": [
        {
          "internalType": "address",
          "name": "",
          "type": "address"
        }
      ],
      "stateMutability": "view",
      "type": "function"
    },
    {
      "inputs": [],
      "name": "symbol",
      "outputs": [
        {
          "internalType": "string",
          "name": "",
          "type": "string"
        }
      ],
      "stateMutability": "view",
      "type": "function"
    },
    {
      "inputs": [],
      "name": "totalSupply",
      "outputs": [
        {
          "internalType": "uint256",
          "name": "",
          "type": "uint256"
        }
      ],
      "stateMutability": "view",
      "type": "function"
    }
  ],
  "bytecode": "0x608060405234801561001057600080fd5b50610a6e806100206000396000f3fe608060405234801561001057600080fd5b506004361061007d5760003560e01c80634cd88b761161005b5780634cd88b76146100dc57806370a08231146100f85780638da5cb5b1461012857806395d89b41146101465761007d565b806306fdde031461008257806318160ddd146100a0578063313ce567146100be575b600080fd5b61008a610164565b60405161009791906106f2565b60405180910390f35b6100a86101f6565b6040516100b59190610734565b60405180910390f35b6100c66101ff565b6040516100d3919061074f565b60405180910390f35b6100f660048036038101906100f191906105d6565b610208565b005b610112600480360381019061010d91906105a9565b61037c565b60405161011f9190610734565b60405180910390f35b6101306103c5565b60405161013d91906106d7565b60405180910390f35b61014e6103ef565b60405161015b91906106f2565b60405180910390f35b606060018054610173906108bd565b80601f016020809104026020016040519081016040528092919081815260200182805461019f906108bd565b80156101ec5780601f106101c1576101008083540402835291602001916101ec565b820191906000526020600020905b8154815290600101906020018083116101cf57829003601f168201915b5050505050905090565b60008054905090565b60006012905090565b600460149054906101000a900460ff1615610258576040517f08c379a000000000000000000000000000000000000000000000000000000000815260040161024f90610714565b60405180910390fd5b816001908051906020019061026e929190610481565b508060029080519060200190610285929190610481565b5033600460006101000a81548173ffffffffffffffffffffffffffffffffffffffff021916908373ffffffffffffffffffffffffffffffffffffffff160217905550620f42406000808282546102db91906107dc565b92505081905550620f424060036000600460009054906101000a900473ffffffffffffffffffffffffffffffffffffffff1673ffffffffffffffffffffffffffffffffffffffff1673ffffffffffffffffffffffffffffffffffffffff168152602001908152602001600020600082825461035691906107dc565b925050819055506001600460146101000a81548160ff0219169083151502179055505050565b6000600360008373ffffffffffffffffffffffffffffffffffffffff1673ffffffffffffffffffffffffffffffffffffffff168152602001908152602001600020549050919050565b6000600460009054906101000a900473ffffffffffffffffffffffffffffffffffffffff16905090565b6060600280546103fe906108bd565b80601f016020809104026020016040519081016040528092919081815260200182805461042a906108bd565b80156104775780601f1061044c57610100808354040283529160200191610477565b820191906000526020600020905b81548152906001019060200180831161045a57829003601f168201915b5050505050905090565b82805461048d906108bd565b90600052602060002090601f0160209004810192826104af57600085556104f6565b82601f106104c857805160ff19168380011785556104f6565b828001600101855582156104f6579182015b828111156104f55782518255916020019190600101906104da565b5b5090506105039190610507565b5090565b5b80821115610520576000816000905550600101610508565b5090565b60006105376105328461078f565b61076a565b905082815260208101848484011115610553576105526109b2565b5b61055e84828561087b565b509392505050565b60008135905061057581610a21565b92915050565b600082601f8301126105905761058f6109ad565b5b81356105a0848260208601610524565b91505092915050565b6000602082840312156105bf576105be6109bc565b5b60006105cd84828501610566565b91505092915050565b600080604083850312156105ed576105ec6109bc565b5b600083013567ffffffffffffffff81111561060b5761060a6109b7565b5b6106178582860161057b565b925050602083013567ffffffffffffffff811115610638576106376109b7565b5b6106448582860161057b565b9150509250929050565b61065781610832565b82525050565b6000610668826107c0565b61067281856107cb565b935061068281856020860161088a565b61068b816109c1565b840191505092915050565b60006106a3602a836107cb565b91506106ae826109d2565b604082019050919050565b6106c281610864565b82525050565b6106d18161086e565b82525050565b60006020820190506106ec600083018461064e565b92915050565b6000602082019050818103600083015261070c818461065d565b905092915050565b6000602082019050818103600083015261072d81610696565b9050919050565b600060208201905061074960008301846106b9565b92915050565b600060208201905061076460008301846106c8565b92915050565b6000610774610785565b905061078082826108ef565b919050565b6000604051905090565b600067ffffffffffffffff8211156107aa576107a961097e565b5b6107b3826109c1565b9050602081019050919050565b600081519050919050565b600082825260208201905092915050565b60006107e782610864565b91506107f283610864565b9250827fffffffffffffffffffffffffffffffffffffffffffffffffffffffffffffffff0382111561082757610826610920565b5b828201905092915050565b600061083d82610844565b9050919050565b600073ffffffffffffffffffffffffffffffffffffffff82169050919050565b6000819050919050565b600060ff82169050919050565b82818337600083830152505050565b60005b838110156108a857808201518184015260208101905061088d565b838111156108b7576000848401525b50505050565b600060028204905060018216806108d557607f821691505b602082108114156108e9576108e861094f565b5b50919050565b6108f8826109c1565b810181811067ffffffffffffffff821117156109175761091661097e565b5b80604052505050565b7f4e487b7100000000000000000000000000000000000000000000000000000000600052601160045260246000fd5b7f4e487b7100000000000000000000000000000000000000000000000000000000600052602260045260246000fd5b7f4e487b7100000000000000000000000000000000000000000000000000000000600052604160045260246000fd5b600080fd5b600080fd5b600080fd5b600080fd5b6000601f19601f8301169050919050565b7f436f6e747261637420696e7374616e63652068617320616c726561647920696e60008201527f697469616c697a65642e00000000000000000000000000000000000000000000602082015250565b610a2a81610832565b8114610a3557600080fd5b5056fea2646970667358221220a81b25d594a436bc7d0f6a9fb15e7575edf24f21d2f6fcd9fb7bbf8498b9cc7464736f6c63430008060033",
  "linkReferences": {},
  "deployedLinkReferences": {}
}