{
  "_format": "hh-sol-artifact-1",
  "contractName": "JosamToken",
  "sourceName": "contracts/JosamTokenV1.sol",
  "abi": [
    {
      "inputs": [],
      "stateMutability": "nonpayable",
      "type": "constructor"
    },
    {
      "inputs": [
        {
          "internalType": "address",
          "name": "account",
          "type": "address"
        }
      ],
      "name": "balanceOf",
      "outputs": [
        {
          "internalType": "uint256",
          "name": "",
          "type": "uint256"
        }
      ],
      "stateMutability": "view",
      "type": "function"
    },
    {
      "inputs": [],
      "name": "decimals",
      "outputs": [
        {
          "internalType": "uint8",
          "name": "",
          "type": "uint8"
        }
      ],
      "stateMutability": "pure",
      "type": "function"
    },
    {
      "inputs": [],
      "name": "name",
      "outputs": [
        {
          "internalType": "string",
          "name": "",
          "type": "string"
        }
      ],
      "stateMutability": "view",
      "type": "function"
    },
    {
      "inputs": [],
      "name": "owner",
      "outputs": [
        {
          "internalType": "address",
          "name": "",
          "type": "address"
        }
      ],
      "stateMutability": "view",
      "type": "function"
    },
    {
      "inputs": [],
      "name": "symbol",
      "outputs": [
        {
          "internalType": "string",
          "name": "",
          "type": "string"
        }
      ],
      "stateMutability": "view",
      "type": "function"
    },
    {
      "inputs": [],
      "name": "totalSupply",
      "outputs": [
        {
          "internalType": "uint256",
          "name": "",
          "type": "uint256"
        }
      ],
      "stateMutability": "view",
      "type": "function"
    }
  ],
  "bytecode": "0x608060405234801561001057600080fd5b506040518060400160405280600b81526020017f4a6f73616d20546f6b656e0000000000000000000000000000000000000000008152506001908051906020019061005c929190610185565b506040518060400160405280600381526020017f4a544b0000000000000000000000000000000000000000000000000000000000815250600290805190602001906100a8929190610185565b5033600460006101000a81548173ffffffffffffffffffffffffffffffffffffffff021916908373ffffffffffffffffffffffffffffffffffffffff160217905550620f42406000808282546100fe9190610228565b92505081905550620f424060036000600460009054906101000a900473ffffffffffffffffffffffffffffffffffffffff1673ffffffffffffffffffffffffffffffffffffffff1673ffffffffffffffffffffffffffffffffffffffff16815260200190815260200160002060008282546101799190610228565b92505081905550610318565b82805461019190610288565b90600052602060002090601f0160209004810192826101b357600085556101fa565b82601f106101cc57805160ff19168380011785556101fa565b828001600101855582156101fa579182015b828111156101f95782518255916020019190600101906101de565b5b509050610207919061020b565b5090565b5b8082111561022457600081600090555060010161020c565b5090565b60006102338261027e565b915061023e8361027e565b9250827fffffffffffffffffffffffffffffffffffffffffffffffffffffffffffffffff03821115610273576102726102ba565b5b828201905092915050565b6000819050919050565b600060028204905060018216806102a057607f821691505b602082108114156102b4576102b36102e9565b5b50919050565b7f4e487b7100000000000000000000000000000000000000000000000000000000600052601160045260246000fd5b7f4e487b7100000000000000000000000000000000000000000000000000000000600052602260045260246000fd5b61054d806103276000396000f3fe608060405234801561001057600080fd5b50600436106100625760003560e01c806306fdde031461006757806318160ddd14610085578063313ce567146100a357806370a08231146100c15780638da5cb5b146100f157806395d89b411461010f575b600080fd5b61006f61012d565b60405161007c9190610399565b60405180910390f35b61008d6101bf565b60405161009a91906103bb565b60405180910390f35b6100ab6101c8565b6040516100b891906103d6565b60405180910390f35b6100db60048036038101906100d691906102eb565b6101d1565b6040516100e891906103bb565b60405180910390f35b6100f961021a565b604051610106919061037e565b60405180910390f35b610117610244565b6040516101249190610399565b60405180910390f35b60606001805461013c90610489565b80601f016020809104026020016040519081016040528092919081815260200182805461016890610489565b80156101b55780601f1061018a576101008083540402835291602001916101b5565b820191906000526020600020905b81548152906001019060200180831161019857829003601f168201915b5050505050905090565b60008054905090565b60006012905090565b6000600360008373ffffffffffffffffffffffffffffffffffffffff1673ffffffffffffffffffffffffffffffffffffffff168152602001908152602001600020549050919050565b6000600460009054906101000a900473ffffffffffffffffffffffffffffffffffffffff16905090565b60606002805461025390610489565b80601f016020809104026020016040519081016040528092919081815260200182805461027f90610489565b80156102cc5780601f106102a1576101008083540402835291602001916102cc565b820191906000526020600020905b8154815290600101906020018083116102af57829003601f168201915b5050505050905090565b6000813590506102e581610500565b92915050565b600060208284031215610301576103006104ea565b5b600061030f848285016102d6565b91505092915050565b6103218161040d565b82525050565b6000610332826103f1565b61033c81856103fc565b935061034c818560208601610456565b610355816104ef565b840191505092915050565b6103698161043f565b82525050565b61037881610449565b82525050565b60006020820190506103936000830184610318565b92915050565b600060208201905081810360008301526103b38184610327565b905092915050565b60006020820190506103d06000830184610360565b92915050565b60006020820190506103eb600083018461036f565b92915050565b600081519050919050565b600082825260208201905092915050565b60006104188261041f565b9050919050565b600073ffffffffffffffffffffffffffffffffffffffff82169050919050565b6000819050919050565b600060ff82169050919050565b60005b83811015610474578082015181840152602081019050610459565b83811115610483576000848401525b50505050565b600060028204905060018216806104a157607f821691505b602082108114156104b5576104b46104bb565b5b50919050565b7f4e487b7100000000000000000000000000000000000000000000000000000000600052602260045260246000fd5b600080fd5b6000601f19601f8301169050919050565b6105098161040d565b811461051457600080fd5b5056fea2646970667358221220e9828aa26429b1a31b27d7debd013bea649ee7e34c09d0bd7b3eb761f31f475964736f6c63430008060033",
  "linkReferences": {},
  "deployedLinkReferences": {}
}