{
  "_format": "hh-sol-artifact-1",
  "contractName": "JosamToken",
  "sourceName": "contracts/JosamTokenV1.sol",
  "abi": [
    {
      "inputs": [
        {
          "internalType": "address",
          "name": "account",
          "type": "address"
        }
      ],
      "name": "balanceOf",
      "outputs": [
        {
          "internalType": "uint256",
          "name": "",
          "type": "uint256"
        }
      ],
      "stateMutability": "view",
      "type": "function"
    },
    {
      "inputs": [],
      "name": "decimals",
      "outputs": [
        {
          "internalType": "uint8",
          "name": "",
          "type": "uint8"
        }
      ],
      "stateMutability": "pure",
      "type": "function"
    },
    {
      "inputs": [
        {
          "internalType": "string",
          "name": "_tName",
          "type": "string"
        },
        {
          "internalType": "string",
          "name": "_tSymbol",
          "type": "string"
        }
      ],
      "name": "initialize",
      "outputs": [],
      "stateMutability": "nonpayable",
      "type": "function"
    },
    {
      "inputs": [],
      "name": "name",
      "outputs": [
        {
          "internalType": "string",
          "name": "",
          "type": "string"
        }
      ],
      "stateMutability": "view",
      "type": "function"
    },
    {
      "inputs": [],
      "name": "symbol",
      "outputs": [
        {
          "internalType": "string",
          "name": "",
          "type": "string"
        }
      ],
      "stateMutability": "view",
      "type": "function"
    },
    {
      "inputs": [],
      "name": "totalSupply",
      "outputs": [
        {
          "internalType": "uint256",
          "name": "",
          "type": "uint256"
        }
      ],
      "stateMutability": "view",
      "type": "function"
    }
  ],
  "bytecode": "0x608060405234801561001057600080fd5b5061097e806100206000396000f3fe608060405234801561001057600080fd5b50600436106100625760003560e01c806306fdde031461006757806318160ddd14610085578063313ce567146100a35780634cd88b76146100c157806370a08231146100dd57806395d89b411461010d575b600080fd5b61006f61012b565b60405161007c9190610602565b60405180910390f35b61008d6101bd565b60405161009a9190610644565b60405180910390f35b6100ab6101c6565b6040516100b8919061065f565b60405180910390f35b6100db60048036038101906100d69190610510565b6101cf565b005b6100f760048036038101906100f291906104e3565b6102e0565b6040516101049190610644565b60405180910390f35b610115610329565b6040516101229190610602565b60405180910390f35b60606001805461013a906107cd565b80601f0160208091040260200160405190810160405280929190818152602001828054610166906107cd565b80156101b35780601f10610188576101008083540402835291602001916101b3565b820191906000526020600020905b81548152906001019060200180831161019657829003601f168201915b5050505050905090565b60008054905090565b60006012905090565b600460009054906101000a900460ff161561021f576040517f08c379a000000000000000000000000000000000000000000000000000000000815260040161021690610624565b60405180910390fd5b81600190805190602001906102359291906103bb565b50806002908051906020019061024c9291906103bb565b50620f424060008082825461026191906106ec565b92505081905550620f4240600360003373ffffffffffffffffffffffffffffffffffffffff1673ffffffffffffffffffffffffffffffffffffffff16815260200190815260200160002060008282546102ba91906106ec565b925050819055506001600460006101000a81548160ff0219169083151502179055505050565b6000600360008373ffffffffffffffffffffffffffffffffffffffff1673ffffffffffffffffffffffffffffffffffffffff168152602001908152602001600020549050919050565b606060028054610338906107cd565b80601f0160208091040260200160405190810160405280929190818152602001828054610364906107cd565b80156103b15780601f10610386576101008083540402835291602001916103b1565b820191906000526020600020905b81548152906001019060200180831161039457829003601f168201915b5050505050905090565b8280546103c7906107cd565b90600052602060002090601f0160209004810192826103e95760008555610430565b82601f1061040257805160ff1916838001178555610430565b82800160010185558215610430579182015b8281111561042f578251825591602001919060010190610414565b5b50905061043d9190610441565b5090565b5b8082111561045a576000816000905550600101610442565b5090565b600061047161046c8461069f565b61067a565b90508281526020810184848401111561048d5761048c6108c2565b5b61049884828561078b565b509392505050565b6000813590506104af81610931565b92915050565b600082601f8301126104ca576104c96108bd565b5b81356104da84826020860161045e565b91505092915050565b6000602082840312156104f9576104f86108cc565b5b6000610507848285016104a0565b91505092915050565b60008060408385031215610527576105266108cc565b5b600083013567ffffffffffffffff811115610545576105446108c7565b5b610551858286016104b5565b925050602083013567ffffffffffffffff811115610572576105716108c7565b5b61057e858286016104b5565b9150509250929050565b6000610593826106d0565b61059d81856106db565b93506105ad81856020860161079a565b6105b6816108d1565b840191505092915050565b60006105ce602a836106db565b91506105d9826108e2565b604082019050919050565b6105ed81610774565b82525050565b6105fc8161077e565b82525050565b6000602082019050818103600083015261061c8184610588565b905092915050565b6000602082019050818103600083015261063d816105c1565b9050919050565b600060208201905061065960008301846105e4565b92915050565b600060208201905061067460008301846105f3565b92915050565b6000610684610695565b905061069082826107ff565b919050565b6000604051905090565b600067ffffffffffffffff8211156106ba576106b961088e565b5b6106c3826108d1565b9050602081019050919050565b600081519050919050565b600082825260208201905092915050565b60006106f782610774565b915061070283610774565b9250827fffffffffffffffffffffffffffffffffffffffffffffffffffffffffffffffff0382111561073757610736610830565b5b828201905092915050565b600061074d82610754565b9050919050565b600073ffffffffffffffffffffffffffffffffffffffff82169050919050565b6000819050919050565b600060ff82169050919050565b82818337600083830152505050565b60005b838110156107b857808201518184015260208101905061079d565b838111156107c7576000848401525b50505050565b600060028204905060018216806107e557607f821691505b602082108114156107f9576107f861085f565b5b50919050565b610808826108d1565b810181811067ffffffffffffffff821117156108275761082661088e565b5b80604052505050565b7f4e487b7100000000000000000000000000000000000000000000000000000000600052601160045260246000fd5b7f4e487b7100000000000000000000000000000000000000000000000000000000600052602260045260246000fd5b7f4e487b7100000000000000000000000000000000000000000000000000000000600052604160045260246000fd5b600080fd5b600080fd5b600080fd5b600080fd5b6000601f19601f8301169050919050565b7f436f6e747261637420696e7374616e63652068617320616c726561647920696e60008201527f697469616c697a65642e00000000000000000000000000000000000000000000602082015250565b61093a81610742565b811461094557600080fd5b5056fea264697066735822122091f05d9348b4488f3a92435f382ec53a9536dabc592a4e2bd30d2ddffffd471164736f6c63430008060033",
  "linkReferences": {},
  "deployedLinkReferences": {}
}