{
  "_format": "hh-sol-artifact-1",
  "contractName": "JosamTokenV3",
  "sourceName": "contracts/JosamTokenV3.sol",
  "abi": [
    {
      "anonymous": false,
      "inputs": [
        {
          "indexed": false,
          "internalType": "address",
          "name": "accountOwner",
          "type": "address"
        },
        {
          "indexed": false,
          "internalType": "address",
          "name": "spender",
          "type": "address"
        },
        {
          "indexed": false,
          "internalType": "uint256",
          "name": "amount",
          "type": "uint256"
        }
      ],
      "name": "Approval",
      "type": "event"
    },
    {
      "anonymous": false,
      "inputs": [
        {
          "indexed": false,
          "internalType": "address",
          "name": "account",
          "type": "address"
        },
        {
          "indexed": false,
          "internalType": "address",
          "name": "contractAddress",
          "type": "address"
        },
        {
          "indexed": false,
          "internalType": "uint256",
          "name": "amount",
          "type": "uint256"
        }
      ],
      "name": "Burn",
      "type": "event"
    },
    {
      "anonymous": false,
      "inputs": [
        {
          "indexed": false,
          "internalType": "address",
          "name": "account",
          "type": "address"
        },
        {
          "indexed": false,
          "internalType": "address",
          "name": "contractAddress",
          "type": "address"
        },
        {
          "indexed": false,
          "internalType": "uint256",
          "name": "amount",
          "type": "uint256"
        }
      ],
      "name": "Mint",
      "type": "event"
    },
    {
      "anonymous": false,
      "inputs": [
        {
          "indexed": false,
          "internalType": "address",
          "name": "oldOwner",
          "type": "address"
        },
        {
          "indexed": false,
          "internalType": "address",
          "name": "newOwner",
          "type": "address"
        }
      ],
      "name": "OwnershipTransfert",
      "type": "event"
    },
    {
      "anonymous": false,
      "inputs": [
        {
          "indexed": false,
          "internalType": "address",
          "name": "to",
          "type": "address"
        },
        {
          "indexed": false,
          "internalType": "uint256",
          "name": "amount",
          "type": "uint256"
        }
      ],
      "name": "Transfert",
      "type": "event"
    },
    {
      "anonymous": false,
      "inputs": [
        {
          "indexed": false,
          "internalType": "address",
          "name": "from",
          "type": "address"
        },
        {
          "indexed": false,
          "internalType": "address",
          "name": "to",
          "type": "address"
        },
        {
          "indexed": false,
          "internalType": "uint256",
          "name": "amount",
          "type": "uint256"
        }
      ],
      "name": "TransfertFrom",
      "type": "event"
    },
    {
      "inputs": [
        {
          "internalType": "address",
          "name": "_ownerAccount",
          "type": "address"
        },
        {
          "internalType": "address",
          "name": "_spender",
          "type": "address"
        }
      ],
      "name": "allowance",
      "outputs": [
        {
          "internalType": "uint256",
          "name": "",
          "type": "uint256"
        }
      ],
      "stateMutability": "view",
      "type": "function"
    },
    {
      "inputs": [
        {
          "internalType": "address",
          "name": "_spender",
          "type": "address"
        },
        {
          "internalType": "uint256",
          "name": "_amount",
          "type": "uint256"
        }
      ],
      "name": "approve",
      "outputs": [],
      "stateMutability": "nonpayable",
      "type": "function"
    },
    {
      "inputs": [
        {
          "internalType": "address",
          "name": "account",
          "type": "address"
        }
      ],
      "name": "balanceOf",
      "outputs": [
        {
          "internalType": "uint256",
          "name": "",
          "type": "uint256"
        }
      ],
      "stateMutability": "view",
      "type": "function"
    },
    {
      "inputs": [
        {
          "internalType": "address",
          "name": "_account",
          "type": "address"
        },
        {
          "internalType": "uint256",
          "name": "_amount",
          "type": "uint256"
        }
      ],
      "name": "burn",
      "outputs": [],
      "stateMutability": "nonpayable",
      "type": "function"
    },
    {
      "inputs": [],
      "name": "decimals",
      "outputs": [
        {
          "internalType": "uint8",
          "name": "",
          "type": "uint8"
        }
      ],
      "stateMutability": "pure",
      "type": "function"
    },
    {
      "inputs": [
        {
          "internalType": "address",
          "name": "_spender",
          "type": "address"
        },
        {
          "internalType": "uint256",
          "name": "_amount",
          "type": "uint256"
        }
      ],
      "name": "decreaseAllowance",
      "outputs": [],
      "stateMutability": "nonpayable",
      "type": "function"
    },
    {
      "inputs": [
        {
          "internalType": "address",
          "name": "_spender",
          "type": "address"
        },
        {
          "internalType": "uint256",
          "name": "_amount",
          "type": "uint256"
        }
      ],
      "name": "increaseAllowance",
      "outputs": [],
      "stateMutability": "nonpayable",
      "type": "function"
    },
    {
      "inputs": [
        {
          "internalType": "string",
          "name": "_tName",
          "type": "string"
        },
        {
          "internalType": "string",
          "name": "_tSymbol",
          "type": "string"
        }
      ],
      "name": "initialize",
      "outputs": [],
      "stateMutability": "nonpayable",
      "type": "function"
    },
    {
      "inputs": [
        {
          "internalType": "address",
          "name": "_account",
          "type": "address"
        },
        {
          "internalType": "uint256",
          "name": "_amount",
          "type": "uint256"
        }
      ],
      "name": "mint",
      "outputs": [],
      "stateMutability": "nonpayable",
      "type": "function"
    },
    {
      "inputs": [],
      "name": "name",
      "outputs": [
        {
          "internalType": "string",
          "name": "",
          "type": "string"
        }
      ],
      "stateMutability": "view",
      "type": "function"
    },
    {
      "inputs": [],
      "name": "owner",
      "outputs": [
        {
          "internalType": "address",
          "name": "",
          "type": "address"
        }
      ],
      "stateMutability": "view",
      "type": "function"
    },
    {
      "inputs": [],
      "name": "symbol",
      "outputs": [
        {
          "internalType": "string",
          "name": "",
          "type": "string"
        }
      ],
      "stateMutability": "view",
      "type": "function"
    },
    {
      "inputs": [],
      "name": "totalSupply",
      "outputs": [
        {
          "internalType": "uint256",
          "name": "",
          "type": "uint256"
        }
      ],
      "stateMutability": "view",
      "type": "function"
    },
    {
      "inputs": [
        {
          "internalType": "address payable",
          "name": "_to",
          "type": "address"
        },
        {
          "internalType": "uint256",
          "name": "_amount",
          "type": "uint256"
        }
      ],
      "name": "transfer",
      "outputs": [],
      "stateMutability": "payable",
      "type": "function"
    },
    {
      "inputs": [
        {
          "internalType": "address payable",
          "name": "_from",
          "type": "address"
        },
        {
          "internalType": "address payable",
          "name": "_to",
          "type": "address"
        },
        {
          "internalType": "uint256",
          "name": "_amount",
          "type": "uint256"
        }
      ],
      "name": "transferFrom",
      "outputs": [],
      "stateMutability": "payable",
      "type": "function"
    }
  ],
  "bytecode": "0x608060405234801561001057600080fd5b5061229a806100206000396000f3fe6080604052600436106100e85760003560e01c80634cd88b761161008a5780639dc29fac116100595780639dc29fac146102c1578063a457c2d7146102ea578063a9059cbb14610313578063dd62ed3e1461032f576100e8565b80634cd88b761461020557806370a082311461022e5780638da5cb5b1461026b57806395d89b4114610296576100e8565b806323b872dd116100c657806323b872dd1461016c578063313ce5671461018857806339509351146101b357806340c10f19146101dc576100e8565b806306fdde03146100ed578063095ea7b31461011857806318160ddd14610141575b600080fd5b3480156100f957600080fd5b5061010261036c565b60405161010f9190611aa5565b60405180910390f35b34801561012457600080fd5b5061013f600480360381019061013a9190611730565b6103fe565b005b34801561014d57600080fd5b506101566104be565b6040516101639190611c07565b60405180910390f35b6101866004803603810190610181919061165d565b6104c7565b005b34801561019457600080fd5b5061019d610908565b6040516101aa9190611c22565b60405180910390f35b3480156101bf57600080fd5b506101da60048036038101906101d59190611730565b610911565b005b3480156101e857600080fd5b5061020360048036038101906101fe9190611730565b6109a8565b005b34801561021157600080fd5b5061022c60048036038101906102279190611770565b610bf2565b005b34801561023a57600080fd5b5061025560048036038101906102509190611630565b610d44565b6040516102629190611c07565b60405180910390f35b34801561027757600080fd5b50610280610d8d565b60405161028d91906119f3565b60405180910390f35b3480156102a257600080fd5b506102ab610db7565b6040516102b89190611aa5565b60405180910390f35b3480156102cd57600080fd5b506102e860048036038101906102e39190611730565b610e49565b005b3480156102f657600080fd5b50610311600480360381019061030c9190611730565b6110d2565b005b61032d600480360381019061032891906116b0565b611169565b005b34801561033b57600080fd5b50610356600480360381019061035191906116f0565b611457565b6040516103639190611c07565b60405180910390f35b60606001805461037b90611e17565b80601f01602080910402602001604051908101604052809291908181526020018280546103a790611e17565b80156103f45780601f106103c9576101008083540402835291602001916103f4565b820191906000526020600020905b8154815290600101906020018083116103d757829003601f168201915b5050505050905090565b80600560003373ffffffffffffffffffffffffffffffffffffffff1673ffffffffffffffffffffffffffffffffffffffff16815260200190815260200160002060008473ffffffffffffffffffffffffffffffffffffffff1673ffffffffffffffffffffffffffffffffffffffff168152602001908152602001600020819055507f8c5be1e5ebec7d5bd14f71427d1e84f3dd0314c0f7b2291e5b200ac8c7c3b9253383836040516104b293929190611a6e565b60405180910390a15050565b60008054905090565b6002600754141561050d576040517f08c379a000000000000000000000000000000000000000000000000000000000815260040161050490611ac7565b60405180910390fd5b6002600781905550600073ffffffffffffffffffffffffffffffffffffffff168373ffffffffffffffffffffffffffffffffffffffff161415801561057e57503073ffffffffffffffffffffffffffffffffffffffff168373ffffffffffffffffffffffffffffffffffffffff1614155b80156105b75750600073ffffffffffffffffffffffffffffffffffffffff168273ffffffffffffffffffffffffffffffffffffffff1614155b80156105c35750600081115b610602576040517f08c379a00000000000000000000000000000000000000000000000000000000081526004016105f990611b87565b60405180910390fd5b8061060d8433611457565b101561064e576040517f08c379a000000000000000000000000000000000000000000000000000000000815260040161064590611b47565b60405180910390fd5b80600360008573ffffffffffffffffffffffffffffffffffffffff1673ffffffffffffffffffffffffffffffffffffffff1681526020019081526020016000205410156106d0576040517f08c379a00000000000000000000000000000000000000000000000000000000081526004016106c790611b07565b60405180910390fd5b80600560008573ffffffffffffffffffffffffffffffffffffffff1673ffffffffffffffffffffffffffffffffffffffff16815260200190815260200160002060003373ffffffffffffffffffffffffffffffffffffffff1673ffffffffffffffffffffffffffffffffffffffff168152602001908152602001600020600082825461075c9190611d10565b9250508190555080600360008573ffffffffffffffffffffffffffffffffffffffff1673ffffffffffffffffffffffffffffffffffffffff16815260200190815260200160002060008282546107b29190611d10565b9250508190555080600360008473ffffffffffffffffffffffffffffffffffffffff1673ffffffffffffffffffffffffffffffffffffffff16815260200190815260200160002060008282546108089190611cba565b9250508190555060008373ffffffffffffffffffffffffffffffffffffffff1661271083604051610838906119de565b600060405180830381858888f193505050503d8060008114610876576040519150601f19603f3d011682016040523d82523d6000602084013e61087b565b606091505b50509050806108bf576040517f08c379a00000000000000000000000000000000000000000000000000000000081526004016108b690611ae7565b60405180910390fd5b7f8f6f32eaf9c80423b7572115ccc40c35f3614b87383235893e6deacd5410c9db8484846040516108f293929190611a0e565b60405180910390a1600160078190555050505050565b60006012905090565b80600560003373ffffffffffffffffffffffffffffffffffffffff1673ffffffffffffffffffffffffffffffffffffffff16815260200190815260200160002060008473ffffffffffffffffffffffffffffffffffffffff1673ffffffffffffffffffffffffffffffffffffffff168152602001908152602001600020600082825461099d9190611cba565b925050819055505050565b81600660009054906101000a900473ffffffffffffffffffffffffffffffffffffffff1673ffffffffffffffffffffffffffffffffffffffff168173ffffffffffffffffffffffffffffffffffffffff1614610a39576040517f08c379a0000000000000000000000000000000000000000000000000000000008152600401610a3090611bc7565b60405180910390fd5b60026007541415610a7f576040517f08c379a0000000000000000000000000000000000000000000000000000000008152600401610a7690611ac7565b60405180910390fd5b60026007819055503073ffffffffffffffffffffffffffffffffffffffff168373ffffffffffffffffffffffffffffffffffffffff1614158015610af05750600073ffffffffffffffffffffffffffffffffffffffff168373ffffffffffffffffffffffffffffffffffffffff1614155b8015610afc5750600082115b610b3b576040517f08c379a0000000000000000000000000000000000000000000000000000000008152600401610b3290611b27565b60405180910390fd5b81600080828254610b4c9190611cba565b9250508190555081600360008573ffffffffffffffffffffffffffffffffffffffff1673ffffffffffffffffffffffffffffffffffffffff1681526020019081526020016000206000828254610ba29190611cba565b925050819055507fab8530f87dc9b59234c4623bf917212bb2536d647574c8e7e5da92c2ede0c9f883600084604051610bdd93929190611a6e565b60405180910390a16001600781905550505050565b600460009054906101000a900460ff1615610c42576040517f08c379a0000000000000000000000000000000000000000000000000000000008152600401610c3990611b67565b60405180910390fd5b8160019080519060200190610c589291906114de565b508060029080519060200190610c6f9291906114de565b5033600660006101000a81548173ffffffffffffffffffffffffffffffffffffffff021916908373ffffffffffffffffffffffffffffffffffffffff160217905550620f4240600080828254610cc59190611cba565b92505081905550620f4240600360003373ffffffffffffffffffffffffffffffffffffffff1673ffffffffffffffffffffffffffffffffffffffff1681526020019081526020016000206000828254610d1e9190611cba565b925050819055506001600460006101000a81548160ff0219169083151502179055505050565b6000600360008373ffffffffffffffffffffffffffffffffffffffff1673ffffffffffffffffffffffffffffffffffffffff168152602001908152602001600020549050919050565b6000600660009054906101000a900473ffffffffffffffffffffffffffffffffffffffff16905090565b606060028054610dc690611e17565b80601f0160208091040260200160405190810160405280929190818152602001828054610df290611e17565b8015610e3f5780601f10610e1457610100808354040283529160200191610e3f565b820191906000526020600020905b815481529060010190602001808311610e2257829003601f168201915b5050505050905090565b81600660009054906101000a900473ffffffffffffffffffffffffffffffffffffffff1673ffffffffffffffffffffffffffffffffffffffff168173ffffffffffffffffffffffffffffffffffffffff1614610eda576040517f08c379a0000000000000000000000000000000000000000000000000000000008152600401610ed190611bc7565b60405180910390fd5b60026007541415610f20576040517f08c379a0000000000000000000000000000000000000000000000000000000008152600401610f1790611ac7565b60405180910390fd5b60026007819055503073ffffffffffffffffffffffffffffffffffffffff168373ffffffffffffffffffffffffffffffffffffffff1614158015610f915750600073ffffffffffffffffffffffffffffffffffffffff168373ffffffffffffffffffffffffffffffffffffffff1614155b8015610fdc575081600360008573ffffffffffffffffffffffffffffffffffffffff1673ffffffffffffffffffffffffffffffffffffffff1681526020019081526020016000205410155b61101b576040517f08c379a000000000000000000000000000000000000000000000000000000000815260040161101290611ba7565b60405180910390fd5b81600360008573ffffffffffffffffffffffffffffffffffffffff1673ffffffffffffffffffffffffffffffffffffffff168152602001908152602001600020600082825461106a9190611d10565b92505081905550816000808282546110829190611d10565b925050819055507fbac40739b0d4ca32fa2d82fc91630465ba3eddd1598da6fca393b26fb63b9453836000846040516110bd93929190611a6e565b60405180910390a16001600781905550505050565b80600560003373ffffffffffffffffffffffffffffffffffffffff1673ffffffffffffffffffffffffffffffffffffffff16815260200190815260200160002060008473ffffffffffffffffffffffffffffffffffffffff1673ffffffffffffffffffffffffffffffffffffffff168152602001908152602001600020600082825461115e9190611d10565b925050819055505050565b600260075414156111af576040517f08c379a00000000000000000000000000000000000000000000000000000000081526004016111a690611ac7565b60405180910390fd5b6002600781905550600073ffffffffffffffffffffffffffffffffffffffff168273ffffffffffffffffffffffffffffffffffffffff16141580156111f45750600081115b611233576040517f08c379a000000000000000000000000000000000000000000000000000000000815260040161122a90611b87565b60405180910390fd5b80600360003373ffffffffffffffffffffffffffffffffffffffff1673ffffffffffffffffffffffffffffffffffffffff1681526020019081526020016000205410156112b5576040517f08c379a00000000000000000000000000000000000000000000000000000000081526004016112ac90611b07565b60405180910390fd5b80600360003373ffffffffffffffffffffffffffffffffffffffff1673ffffffffffffffffffffffffffffffffffffffff16815260200190815260200160002060008282546113049190611d10565b9250508190555080600360008473ffffffffffffffffffffffffffffffffffffffff1673ffffffffffffffffffffffffffffffffffffffff168152602001908152602001600020600082825461135a9190611cba565b9250508190555060008273ffffffffffffffffffffffffffffffffffffffff166127108360405161138a906119de565b600060405180830381858888f193505050503d80600081146113c8576040519150601f19603f3d011682016040523d82523d6000602084013e6113cd565b606091505b5050905080611411576040517f08c379a000000000000000000000000000000000000000000000000000000000815260040161140890611be7565b60405180910390fd5b7f6d4caf11311f4079aabeda64a5a93135c7d759da4211ecccd3100a70a7d2bec38383604051611442929190611a45565b60405180910390a16001600781905550505050565b6000600560008473ffffffffffffffffffffffffffffffffffffffff1673ffffffffffffffffffffffffffffffffffffffff16815260200190815260200160002060008373ffffffffffffffffffffffffffffffffffffffff1673ffffffffffffffffffffffffffffffffffffffff16815260200190815260200160002054905092915050565b8280546114ea90611e17565b90600052602060002090601f01602090048101928261150c5760008555611553565b82601f1061152557805160ff1916838001178555611553565b82800160010185558215611553579182015b82811115611552578251825591602001919060010190611537565b5b5090506115609190611564565b5090565b5b8082111561157d576000816000905550600101611565565b5090565b600061159461158f84611c62565b611c3d565b9050828152602081018484840111156115b0576115af611f0c565b5b6115bb848285611dd5565b509392505050565b6000813590506115d28161221f565b92915050565b6000813590506115e781612236565b92915050565b600082601f83011261160257611601611f07565b5b8135611612848260208601611581565b91505092915050565b60008135905061162a8161224d565b92915050565b60006020828403121561164657611645611f16565b5b6000611654848285016115c3565b91505092915050565b60008060006060848603121561167657611675611f16565b5b6000611684868287016115d8565b9350506020611695868287016115d8565b92505060406116a68682870161161b565b9150509250925092565b600080604083850312156116c7576116c6611f16565b5b60006116d5858286016115d8565b92505060206116e68582860161161b565b9150509250929050565b6000806040838503121561170757611706611f16565b5b6000611715858286016115c3565b9250506020611726858286016115c3565b9150509250929050565b6000806040838503121561174757611746611f16565b5b6000611755858286016115c3565b92505060206117668582860161161b565b9150509250929050565b6000806040838503121561178757611786611f16565b5b600083013567ffffffffffffffff8111156117a5576117a4611f11565b5b6117b1858286016115ed565b925050602083013567ffffffffffffffff8111156117d2576117d1611f11565b5b6117de858286016115ed565b9150509250929050565b6117f181611d9f565b82525050565b61180081611d44565b82525050565b600061181182611c93565b61181b8185611ca9565b935061182b818560208601611de4565b61183481611f1b565b840191505092915050565b600061184c602283611ca9565b915061185782611f2c565b604082019050919050565b600061186f602183611ca9565b915061187a82611f7b565b604082019050919050565b6000611892602783611ca9565b915061189d82611fca565b604082019050919050565b60006118b5602383611ca9565b91506118c082612019565b604082019050919050565b60006118d8601e83611ca9565b91506118e382612068565b602082019050919050565b60006118fb602b83611ca9565b915061190682612091565b604082019050919050565b600061191e601583611ca9565b9150611929826120e0565b602082019050919050565b6000611941602383611ca9565b915061194c82612109565b604082019050919050565b6000611964601983611c9e565b915061196f82612158565b601982019050919050565b6000611987603683611ca9565b915061199282612181565b604082019050919050565b60006119aa602283611ca9565b91506119b5826121d0565b604082019050919050565b6119c981611d88565b82525050565b6119d881611d92565b82525050565b60006119e982611957565b9150819050919050565b6000602082019050611a0860008301846117f7565b92915050565b6000606082019050611a2360008301866117e8565b611a3060208301856117e8565b611a3d60408301846119c0565b949350505050565b6000604082019050611a5a60008301856117e8565b611a6760208301846119c0565b9392505050565b6000606082019050611a8360008301866117f7565b611a9060208301856117f7565b611a9d60408301846119c0565b949350505050565b60006020820190508181036000830152611abf8184611806565b905092915050565b60006020820190508181036000830152611ae08161183f565b9050919050565b60006020820190508181036000830152611b0081611862565b9050919050565b60006020820190508181036000830152611b2081611885565b9050919050565b60006020820190508181036000830152611b40816118a8565b9050919050565b60006020820190508181036000830152611b60816118cb565b9050919050565b60006020820190508181036000830152611b80816118ee565b9050919050565b60006020820190508181036000830152611ba081611911565b9050919050565b60006020820190508181036000830152611bc081611934565b9050919050565b60006020820190508181036000830152611be08161197a565b9050919050565b60006020820190508181036000830152611c008161199d565b9050919050565b6000602082019050611c1c60008301846119c0565b92915050565b6000602082019050611c3760008301846119cf565b92915050565b6000611c47611c58565b9050611c538282611e49565b919050565b6000604051905090565b600067ffffffffffffffff821115611c7d57611c7c611ed8565b5b611c8682611f1b565b9050602081019050919050565b600081519050919050565b600081905092915050565b600082825260208201905092915050565b6000611cc582611d88565b9150611cd083611d88565b9250827fffffffffffffffffffffffffffffffffffffffffffffffffffffffffffffffff03821115611d0557611d04611e7a565b5b828201905092915050565b6000611d1b82611d88565b9150611d2683611d88565b925082821015611d3957611d38611e7a565b5b828203905092915050565b6000611d4f82611d68565b9050919050565b6000611d6182611d68565b9050919050565b600073ffffffffffffffffffffffffffffffffffffffff82169050919050565b6000819050919050565b600060ff82169050919050565b6000611daa82611db1565b9050919050565b6000611dbc82611dc3565b9050919050565b6000611dce82611d68565b9050919050565b82818337600083830152505050565b60005b83811015611e02578082015181840152602081019050611de7565b83811115611e11576000848401525b50505050565b60006002820490506001821680611e2f57607f821691505b60208210811415611e4357611e42611ea9565b5b50919050565b611e5282611f1b565b810181811067ffffffffffffffff82111715611e7157611e70611ed8565b5b80604052505050565b7f4e487b7100000000000000000000000000000000000000000000000000000000600052601160045260246000fd5b7f4e487b7100000000000000000000000000000000000000000000000000000000600052602260045260246000fd5b7f4e487b7100000000000000000000000000000000000000000000000000000000600052604160045260246000fd5b600080fd5b600080fd5b600080fd5b600080fd5b6000601f19601f8301169050919050565b7f45524332303a205265656e7472616e742063616c6c206e6f7420616c6c6f776560008201527f642e000000000000000000000000000000000000000000000000000000000000602082015250565b7f45524332303a204661696c656420746f207472616e7366657220546f6b656e7360008201527f2e00000000000000000000000000000000000000000000000000000000000000602082015250565b7f45524332303a205472616e7366657220616d6f756e742065786365656473206260008201527f616c616e63652e00000000000000000000000000000000000000000000000000602082015250565b7f45524332303a2043616e206e6f74206d696e742e20496e76616c696420696e7060008201527f75742e0000000000000000000000000000000000000000000000000000000000602082015250565b7f45524332303a20496e73756666696369656e7420616c6c6f77616e63652e0000600082015250565b7f436f6e747261637420696e737465616e63652068617320616c7265616479206960008201527f6e697469616c697a65642e000000000000000000000000000000000000000000602082015250565b7f45524332303a20496e76616c696420696e7075742e0000000000000000000000600082015250565b7f45524332303a2043616e206e6f74206275726e2e20496e76616c696420696e7060008201527f75742e0000000000000000000000000000000000000000000000000000000000602082015250565b7f45524332303a20416d6f756e74207472616e7366657265642e00000000000000600082015250565b7f45524332303a20596f7520646f6e27742068617665207065726d697373696f6e60008201527f20746f20657865637574652074686973207461736b2e00000000000000000000602082015250565b7f45524332303a204661696c656420746f207472616e736665727420546f6b656e60008201527f732e000000000000000000000000000000000000000000000000000000000000602082015250565b61222881611d44565b811461223357600080fd5b50565b61223f81611d56565b811461224a57600080fd5b50565b61225681611d88565b811461226157600080fd5b5056fea264697066735822122069d1591c1c38774b48c37be3f58bf0df8e2573f31441fb8e393a38fb01159e5f64736f6c63430008060033",
  "linkReferences": {},
  "deployedLinkReferences": {}
}